{
  "contractName": "ERC721",
  "abi": [
    {
      "inputs": [],
      "stateMutability": "nonpayable",
      "type": "constructor"
    },
    {
      "anonymous": false,
      "inputs": [
        {
          "indexed": true,
          "internalType": "address",
          "name": "_owner",
          "type": "address"
        },
        {
          "indexed": true,
          "internalType": "address",
          "name": "_approved",
          "type": "address"
        },
        {
          "indexed": true,
          "internalType": "uint256",
          "name": "_tokenId",
          "type": "uint256"
        }
      ],
      "name": "Approval",
      "type": "event"
    },
    {
      "anonymous": false,
      "inputs": [
        {
          "indexed": true,
          "internalType": "address",
          "name": "_from",
          "type": "address"
        },
        {
          "indexed": true,
          "internalType": "address",
          "name": "_to",
          "type": "address"
        },
        {
          "indexed": true,
          "internalType": "uint256",
          "name": "_tokenId",
          "type": "uint256"
        }
      ],
      "name": "Transfer",
      "type": "event"
    },
    {
      "inputs": [
        {
          "internalType": "bytes4",
          "name": "interfaceID",
          "type": "bytes4"
        }
      ],
      "name": "supportsInterface",
      "outputs": [
        {
          "internalType": "bool",
          "name": "",
          "type": "bool"
        }
      ],
      "stateMutability": "view",
      "type": "function"
    },
    {
      "inputs": [
        {
          "internalType": "address",
          "name": "_owner",
          "type": "address"
        }
      ],
      "name": "balanceOf",
      "outputs": [
        {
          "internalType": "uint256",
          "name": "",
          "type": "uint256"
        }
      ],
      "stateMutability": "view",
      "type": "function"
    },
    {
      "inputs": [
        {
          "internalType": "uint256",
          "name": "_tokenId",
          "type": "uint256"
        }
      ],
      "name": "ownerOf",
      "outputs": [
        {
          "internalType": "address",
          "name": "",
          "type": "address"
        }
      ],
      "stateMutability": "view",
      "type": "function"
    },
    {
      "inputs": [
        {
          "internalType": "address",
          "name": "_from",
          "type": "address"
        },
        {
          "internalType": "address",
          "name": "_to",
          "type": "address"
        },
        {
          "internalType": "uint256",
          "name": "_tokenId",
          "type": "uint256"
        }
      ],
      "name": "transferFrom",
      "outputs": [],
      "stateMutability": "nonpayable",
      "type": "function"
    },
    {
      "inputs": [
        {
          "internalType": "address",
          "name": "_to",
          "type": "address"
        },
        {
          "internalType": "uint256",
          "name": "tokenId",
          "type": "uint256"
        }
      ],
      "name": "approve",
      "outputs": [],
      "stateMutability": "nonpayable",
      "type": "function"
    }
  ],
  "bytecode": "0x608060405234801561001057600080fd5b506100407f01ffc9a7a5cef8baa21ed3c5c0d7e23accb804b619e9333b597f47a0d84076e26100b860201b60201c565b6100b37f22c82707ba960a14c7592ffb6b8cfaa073fed0048a84cc7fa41f6b5bd8e7f2e47f3a6eb71757dfc6e784c1459d26270140c2c147d95ca985c80026fc5301c3eca17f8a7e378434598edc36d108689a030cbc9d7d465de4f74c71bae1028eed6a881b18186100b860201b60201c565b610209565b63ffffffff60e01b817bffffffffffffffffffffffffffffffffffffffffffffffffffffffff191603610120576040517f08c379a0000000000000000000000000000000000000000000000000000000008152600401610117906101e9565b60405180910390fd5b6001600080837bffffffffffffffffffffffffffffffffffffffffffffffffffffffff19167bffffffffffffffffffffffffffffffffffffffffffffffffffffffff1916815260200190815260200160002060006101000a81548160ff02191690831515021790555050565b600082825260208201905092915050565b7f496e76616c696420696e74657266616365207265717565737421000000000000600082015250565b60006101d3601a8361018c565b91506101de8261019d565b602082019050919050565b60006020820190508181036000830152610202816101c6565b9050919050565b610eac806102186000396000f3fe608060405234801561001057600080fd5b50600436106100575760003560e01c806301ffc9a71461005c578063095ea7b31461008c57806323b872dd146100a85780636352211e146100c457806370a08231146100f4575b600080fd5b61007660048036038101906100719190610854565b610124565b604051610083919061089c565b60405180910390f35b6100a660048036038101906100a1919061094b565b61018b565b005b6100c260048036038101906100bd919061098b565b610326565b005b6100de60048036038101906100d991906109de565b610349565b6040516100eb9190610a1a565b60405180910390f35b61010e60048036038101906101099190610a35565b6103fa565b60405161011b9190610a71565b60405180910390f35b6000806000837bffffffffffffffffffffffffffffffffffffffffffffffffffffffff19167bffffffffffffffffffffffffffffffffffffffffffffffffffffffff1916815260200190815260200160002060009054906101000a900460ff169050919050565b600061019682610349565b90508073ffffffffffffffffffffffffffffffffffffffff168373ffffffffffffffffffffffffffffffffffffffff1603610206576040517f08c379a00000000000000000000000000000000000000000000000000000000081526004016101fd90610b0f565b60405180910390fd5b8073ffffffffffffffffffffffffffffffffffffffff163373ffffffffffffffffffffffffffffffffffffffff1614610274576040517f08c379a000000000000000000000000000000000000000000000000000000000815260040161026b90610ba1565b60405180910390fd5b826003600084815260200190815260200160002060006101000a81548173ffffffffffffffffffffffffffffffffffffffff021916908373ffffffffffffffffffffffffffffffffffffffff160217905550818373ffffffffffffffffffffffffffffffffffffffff168273ffffffffffffffffffffffffffffffffffffffff167f8c5be1e5ebec7d5bd14f71427d1e84f3dd0314c0f7b2291e5b200ac8c7c3b92560405160405180910390a4505050565b61033033826104b1565b61033957600080fd5b610344838383610540565b505050565b6000806001600084815260200190815260200160002060009054906101000a900473ffffffffffffffffffffffffffffffffffffffff169050600073ffffffffffffffffffffffffffffffffffffffff168173ffffffffffffffffffffffffffffffffffffffff16036103f1576040517f08c379a00000000000000000000000000000000000000000000000000000000081526004016103e890610c0d565b60405180910390fd5b80915050919050565b60008073ffffffffffffffffffffffffffffffffffffffff168273ffffffffffffffffffffffffffffffffffffffff160361046a576040517f08c379a000000000000000000000000000000000000000000000000000000000815260040161046190610c0d565b60405180910390fd5b600260008373ffffffffffffffffffffffffffffffffffffffff1673ffffffffffffffffffffffffffffffffffffffff168152602001908152602001600020549050919050565b60006104bc82610785565b6104fb576040517f08c379a00000000000000000000000000000000000000000000000000000000081526004016104f290610c79565b60405180910390fd5b600061050683610349565b90508073ffffffffffffffffffffffffffffffffffffffff168473ffffffffffffffffffffffffffffffffffffffff161491505092915050565b600073ffffffffffffffffffffffffffffffffffffffff168273ffffffffffffffffffffffffffffffffffffffff16036105af576040517f08c379a00000000000000000000000000000000000000000000000000000000081526004016105a690610d0b565b60405180910390fd5b8273ffffffffffffffffffffffffffffffffffffffff166105cf82610349565b73ffffffffffffffffffffffffffffffffffffffff1614610625576040517f08c379a000000000000000000000000000000000000000000000000000000000815260040161061c90610d9d565b60405180910390fd5b6001600260008573ffffffffffffffffffffffffffffffffffffffff1673ffffffffffffffffffffffffffffffffffffffff16815260200190815260200160002060008282546106759190610dec565b925050819055506001600260008473ffffffffffffffffffffffffffffffffffffffff1673ffffffffffffffffffffffffffffffffffffffff16815260200190815260200160002060008282546106cc9190610e20565b92505081905550816001600083815260200190815260200160002060006101000a81548173ffffffffffffffffffffffffffffffffffffffff021916908373ffffffffffffffffffffffffffffffffffffffff160217905550808273ffffffffffffffffffffffffffffffffffffffff168473ffffffffffffffffffffffffffffffffffffffff167fddf252ad1be2c89b69c2b068fc378daa952ba7f163c4a11628f55a4df523b3ef60405160405180910390a4505050565b6000806001600084815260200190815260200160002060009054906101000a900473ffffffffffffffffffffffffffffffffffffffff169050600073ffffffffffffffffffffffffffffffffffffffff168173ffffffffffffffffffffffffffffffffffffffff161415915050919050565b600080fd5b60007fffffffff0000000000000000000000000000000000000000000000000000000082169050919050565b610831816107fc565b811461083c57600080fd5b50565b60008135905061084e81610828565b92915050565b60006020828403121561086a576108696107f7565b5b60006108788482850161083f565b91505092915050565b60008115159050919050565b61089681610881565b82525050565b60006020820190506108b1600083018461088d565b92915050565b600073ffffffffffffffffffffffffffffffffffffffff82169050919050565b60006108e2826108b7565b9050919050565b6108f2816108d7565b81146108fd57600080fd5b50565b60008135905061090f816108e9565b92915050565b6000819050919050565b61092881610915565b811461093357600080fd5b50565b6000813590506109458161091f565b92915050565b60008060408385031215610962576109616107f7565b5b600061097085828601610900565b925050602061098185828601610936565b9150509250929050565b6000806000606084860312156109a4576109a36107f7565b5b60006109b286828701610900565b93505060206109c386828701610900565b92505060406109d486828701610936565b9150509250925092565b6000602082840312156109f4576109f36107f7565b5b6000610a0284828501610936565b91505092915050565b610a14816108d7565b82525050565b6000602082019050610a2f6000830184610a0b565b92915050565b600060208284031215610a4b57610a4a6107f7565b5b6000610a5984828501610900565b91505092915050565b610a6b81610915565b82525050565b6000602082019050610a866000830184610a62565b92915050565b600082825260208201905092915050565b7f4572726f72202d20617070726f76616c20746f2063757272656e74206f776e6560008201527f7200000000000000000000000000000000000000000000000000000000000000602082015250565b6000610af9602183610a8c565b9150610b0482610a9d565b604082019050919050565b60006020820190508181036000830152610b2881610aec565b9050919050565b7f43757272656e742063616c6c6572206973206e6f7420746865206f776e65722060008201527f6f662074686520746f6b656e2e00000000000000000000000000000000000000602082015250565b6000610b8b602d83610a8c565b9150610b9682610b2f565b604082019050919050565b60006020820190508181036000830152610bba81610b7e565b9050919050565b7f4f776e6572206164647265737320646f6573206e6f742065786973742e000000600082015250565b6000610bf7601d83610a8c565b9150610c0282610bc1565b602082019050919050565b60006020820190508181036000830152610c2681610bea565b9050919050565b7f746f6b656e20646f6573206e6f74206578697374000000000000000000000000600082015250565b6000610c63601483610a8c565b9150610c6e82610c2d565b602082019050919050565b60006020820190508181036000830152610c9281610c56565b9050919050565b7f4572726f72202d20455243373231207472616e7366657220746f20746865207a60008201527f65726f2061646472657373000000000000000000000000000000000000000000602082015250565b6000610cf5602b83610a8c565b9150610d0082610c99565b604082019050919050565b60006020820190508181036000830152610d2481610ce8565b9050919050565b7f547279696e6720746f207472616e73666572206120746f6b656e20746865206160008201527f64647265737320646f6573206e6f7420706f7373657373000000000000000000602082015250565b6000610d87603783610a8c565b9150610d9282610d2b565b604082019050919050565b60006020820190508181036000830152610db681610d7a565b9050919050565b7f4e487b7100000000000000000000000000000000000000000000000000000000600052601160045260246000fd5b6000610df782610915565b9150610e0283610915565b925082821015610e1557610e14610dbd565b5b828203905092915050565b6000610e2b82610915565b9150610e3683610915565b9250827fffffffffffffffffffffffffffffffffffffffffffffffffffffffffffffffff03821115610e6b57610e6a610dbd565b5b82820190509291505056fea26469706673582212203155d932045516ecd58ee750496f300d3d221195430b04c2922defcbd606058164736f6c634300080f0033",
  "immutableReferences": {},
  "source": "// SPDX-License-Identifier: MIT\r\npragma solidity ^0.8.0;\r\n\r\nimport './ERC165.sol';\r\nimport './interfaces/IERC721.sol';\r\n\r\n    /*\r\n    We want to keep track of in the MINTING FUNCTION:    \r\n        a. nft to point to an address\r\n        b. keep track of token ids\r\n        c. keep track of token owner addresses to token ids - we use mapping for this\r\n        d. keep track of how many tokens an owner address has\r\n        e. create an event that emits a transfer log - contract\r\n        address, where it is being minted to and its id.\r\n\r\n    */\r\n\r\ncontract ERC721 is ERC165, IERC721 {\r\n    // log: commented out since its a part of IERC721 now\r\n    // event Transfer( address indexed from, \r\n    //                 address indexed to, \r\n    //                 uint256 indexed tokenId);\r\n\r\n\r\n    // mapping creates hash table of key pair values\r\n\r\n    //Mapping from token id to owner:\r\n    mapping(uint => address) private _tokenOwner;\r\n\r\n    //Mapping from owner to number of owned tokens:\r\n    mapping(address => uint) private _ownedTokensCount;\r\n\r\n    //Mapping from tokenId to approved addresses\r\n    mapping(uint256 => address) private _tokenApprovals;\r\n\r\n    constructor() {\r\n        _registerInterface(bytes4(keccak256('balanceOf(bytes4)')^\r\n        keccak256('ownerOf(bytes4)')^\r\n        keccak256('transferFrom(bytes4)')\r\n        ));\r\n    }\r\n\r\n    function balanceOf(address _owner) public override view returns(uint256) {\r\n        require(_owner!=address(0), 'Owner address does not exist.');\r\n        return _ownedTokensCount[_owner];\r\n    }\r\n\r\n    // ownerOf function\r\n    // Notes from eips.ethereum.org:\r\n    /// @notice Find the owner of an NFT\r\n    /// @dev NFTs assigned to zero address are considered invalid, and queries\r\n    ///  about them do throw.\r\n    /// @param _tokenId The identifier for an NFT\r\n    /// @return The address of the owner of the NFT\r\n\r\n    function ownerOf(uint256 _tokenId) public view override returns (address) {\r\n        address owner = _tokenOwner[_tokenId];\r\n        require(owner!=address(0), 'Owner address does not exist.');\r\n        return owner;\r\n    }\r\n\r\n\r\n    // a function that checks whether the tokenID exists:\r\n    function _exists(uint256 tokenID) internal view returns(bool) {\r\n        address owner = _tokenOwner[tokenID];\r\n        // return truthiness that address is not 0\r\n        return owner != address(0);\r\n    }\r\n\r\n    function _mint(address to, uint tokenId) internal virtual { // virtual is written to specify this function is gonna be overridden (in ERC721Enumerable.sol)\r\n        //requires that address isn't zero:\r\n        require(to!=address(0), 'ERC721 cannot mint to a zero address!');\r\n        // requires the token ID TO NOT EXIST, i.e., the token should not be present previously.\r\n        require(!_exists(tokenId), 'Token already minted!');\r\n        //updates the _tokenOwner map\r\n        _tokenOwner[tokenId] = to;\r\n        //updates the _ownedTokensCount map\r\n        _ownedTokensCount[to] += 1;\r\n\r\n        //emit logs\r\n        // emit Transfer(address(0), to, tokenId); \r\n    }\r\n\r\n    // MISSED FUNCTIONS\r\n    function _transferFrom(address _from, address _to, uint256 _tokenId) internal {\r\n        require(_to != address(0), 'Error - ERC721 transfer to the zero address');\r\n        require(ownerOf(_tokenId) == _from, 'Trying to transfer a token the address does not possess');\r\n\r\n        _ownedTokensCount[_from] -= 1;\r\n        _ownedTokensCount[_to] += 1;\r\n\r\n        _tokenOwner[_tokenId] = _to;\r\n\r\n        emit Transfer(_from, _to, _tokenId);\r\n    }\r\n\r\n    function transferFrom(address _from, address _to, uint256 _tokenId) override public {\r\n        require(isApprovedOrOwner(msg.sender, _tokenId));\r\n        _transferFrom(_from, _to, _tokenId);\r\n    }\r\n    \r\n    // 1. require that the person approving is the owner\r\n    // 2. we are approving an address to a token (tokenId)\r\n    // 3. require that we cant approve sending tokens of the owner to the owner\r\n    // 4. update the map of the approval addresses\r\n\r\n    function approve(address _to, uint256 tokenId) public {\r\n        address owner = ownerOf(tokenId);\r\n        require(_to != owner, 'Error - approval to current owner');\r\n        require(msg.sender == owner, 'Current caller is not the owner of the token.');\r\n        _tokenApprovals[tokenId] = _to;\r\n        emit Approval(owner, _to, tokenId);\r\n    }\r\n\r\n    function isApprovedOrOwner(address spender, uint256 tokenId) internal view returns(bool) {\r\n        require(_exists(tokenId), 'token does not exist');\r\n        address owner = ownerOf(tokenId);\r\n        return(spender==owner);\r\n    }\r\n}",
  "sourcePath": "C:\\Users\\dell\\Desktop\\stcet\\7th Sem\\Flipkart\\NFT\\nft-marketplace-starter-kit\\src\\contracts\\ERC721.sol",
  "compiler": {
    "name": "solc",
    "version": "0.8.15+commit.e14f2714.Emscripten.clang"
  },
  "schemaVersion": "3.4.8",
  "updatedAt": "2022-07-20T12:50:20.425Z",
  "devdoc": {
    "kind": "dev",
    "methods": {
      "ownerOf(uint256)": {
        "details": "NFTs assigned to zero address are considered invalid, and queries  about them do throw.",
        "params": {
          "_tokenId": "The identifier for an NFT"
        },
        "returns": {
          "_0": "The address of the owner of the NFT"
        }
      },
      "supportsInterface(bytes4)": {
        "details": "Interface identification is specified in ERC-165. This function  uses less than 30,000 gas.",
        "params": {
          "interfaceID": "The interface identifier, as specified in ERC-165"
        },
        "returns": {
          "_0": "`true` if the contract implements `interfaceID` and  `interfaceID` is not 0xffffffff, `false` otherwise"
        }
      }
    },
    "version": 1
  },
  "userdoc": {
    "kind": "user",
    "methods": {
      "ownerOf(uint256)": {
        "notice": "Find the owner of an NFT"
      },
      "supportsInterface(bytes4)": {
        "notice": "Query if a contract implements an interface"
      }
    },
    "version": 1
  }
}