{
  "contractName": "KryptoBird",
  "abi": [
    {
      "inputs": [],
      "stateMutability": "nonpayable",
      "type": "constructor"
    },
    {
      "anonymous": false,
      "inputs": [
        {
          "indexed": true,
          "internalType": "address",
          "name": "from",
          "type": "address"
        },
        {
          "indexed": true,
          "internalType": "address",
          "name": "to",
          "type": "address"
        },
        {
          "indexed": true,
          "internalType": "uint256",
          "name": "tokenId",
          "type": "uint256"
        }
      ],
      "name": "Transfer",
      "type": "event"
    },
    {
      "inputs": [
        {
          "internalType": "address",
          "name": "_owner",
          "type": "address"
        }
      ],
      "name": "balanceOf",
      "outputs": [
        {
          "internalType": "uint256",
          "name": "",
          "type": "uint256"
        }
      ],
      "stateMutability": "view",
      "type": "function",
      "constant": true
    },
    {
      "inputs": [
        {
          "internalType": "uint256",
          "name": "",
          "type": "uint256"
        }
      ],
      "name": "kryptoBirdz",
      "outputs": [
        {
          "internalType": "string",
          "name": "",
          "type": "string"
        }
      ],
      "stateMutability": "view",
      "type": "function",
      "constant": true
    },
    {
      "inputs": [],
      "name": "name",
      "outputs": [
        {
          "internalType": "string",
          "name": "",
          "type": "string"
        }
      ],
      "stateMutability": "view",
      "type": "function",
      "constant": true
    },
    {
      "inputs": [
        {
          "internalType": "uint256",
          "name": "_tokenId",
          "type": "uint256"
        }
      ],
      "name": "ownerOf",
      "outputs": [
        {
          "internalType": "address",
          "name": "",
          "type": "address"
        }
      ],
      "stateMutability": "view",
      "type": "function",
      "constant": true
    },
    {
      "inputs": [],
      "name": "symbol",
      "outputs": [
        {
          "internalType": "string",
          "name": "",
          "type": "string"
        }
      ],
      "stateMutability": "view",
      "type": "function",
      "constant": true
    },
    {
      "inputs": [
        {
          "internalType": "string",
          "name": "_kryptoBird",
          "type": "string"
        }
      ],
      "name": "mint",
      "outputs": [],
      "stateMutability": "nonpayable",
      "type": "function"
    }
  ],
  "bytecode": "0x60806040523480156200001157600080fd5b506040518060400160405280600a81526020017f4b727970746f42697264000000000000000000000000000000000000000000008152506040518060400160405280600681526020017f4b424952445a00000000000000000000000000000000000000000000000000008152508181816000908162000091919062000328565b508060019081620000a3919062000328565b50505050506200040f565b600081519050919050565b7f4e487b7100000000000000000000000000000000000000000000000000000000600052604160045260246000fd5b7f4e487b7100000000000000000000000000000000000000000000000000000000600052602260045260246000fd5b600060028204905060018216806200013057607f821691505b602082108103620001465762000145620000e8565b5b50919050565b60008190508160005260206000209050919050565b60006020601f8301049050919050565b600082821b905092915050565b600060088302620001b07fffffffffffffffffffffffffffffffffffffffffffffffffffffffffffffffff8262000171565b620001bc868362000171565b95508019841693508086168417925050509392505050565b6000819050919050565b6000819050919050565b60006200020962000203620001fd84620001d4565b620001de565b620001d4565b9050919050565b6000819050919050565b6200022583620001e8565b6200023d620002348262000210565b8484546200017e565b825550505050565b600090565b6200025462000245565b620002618184846200021a565b505050565b5b8181101562000289576200027d6000826200024a565b60018101905062000267565b5050565b601f821115620002d857620002a2816200014c565b620002ad8462000161565b81016020851015620002bd578190505b620002d5620002cc8562000161565b83018262000266565b50505b505050565b600082821c905092915050565b6000620002fd60001984600802620002dd565b1980831691505092915050565b6000620003188383620002ea565b9150826002028217905092915050565b6200033382620000ae565b67ffffffffffffffff8111156200034f576200034e620000b9565b5b6200035b825462000117565b620003688282856200028d565b600060209050601f831160018114620003a057600084156200038b578287015190505b6200039785826200030a565b86555062000407565b601f198416620003b0866200014c565b60005b82811015620003da57848901518255600182019150602085019450602081019050620003b3565b86831015620003fa5784890151620003f6601f891682620002ea565b8355505b6001600288020188555050505b505050505050565b611161806200041f6000396000f3fe608060405234801561001057600080fd5b50600436106100625760003560e01c806306fdde03146100675780636352211e1461008557806370a08231146100b557806393ab6e56146100e557806395d89b4114610115578063d85d3d2714610133575b600080fd5b61006f61014f565b60405161007c919061084f565b60405180910390f35b61009f600480360381019061009a91906108bb565b6101e1565b6040516100ac9190610929565b60405180910390f35b6100cf60048036038101906100ca9190610970565b610292565b6040516100dc91906109ac565b60405180910390f35b6100ff60048036038101906100fa91906108bb565b610349565b60405161010c919061084f565b60405180910390f35b61011d6103f5565b60405161012a919061084f565b60405180910390f35b61014d60048036038101906101489190610afc565b610487565b005b60606000805461015e90610b74565b80601f016020809104026020016040519081016040528092919081815260200182805461018a90610b74565b80156101d75780601f106101ac576101008083540402835291602001916101d7565b820191906000526020600020905b8154815290600101906020018083116101ba57829003601f168201915b5050505050905090565b6000806002600084815260200190815260200160002060009054906101000a900473ffffffffffffffffffffffffffffffffffffffff169050600073ffffffffffffffffffffffffffffffffffffffff168173ffffffffffffffffffffffffffffffffffffffff1603610289576040517f08c379a000000000000000000000000000000000000000000000000000000000815260040161028090610bf1565b60405180910390fd5b80915050919050565b60008073ffffffffffffffffffffffffffffffffffffffff168273ffffffffffffffffffffffffffffffffffffffff1603610302576040517f08c379a00000000000000000000000000000000000000000000000000000000081526004016102f990610bf1565b60405180910390fd5b600360008373ffffffffffffffffffffffffffffffffffffffff1673ffffffffffffffffffffffffffffffffffffffff168152602001908152602001600020549050919050565b6004818154811061035957600080fd5b90600052602060002001600091509050805461037490610b74565b80601f01602080910402602001604051908101604052809291908181526020018280546103a090610b74565b80156103ed5780601f106103c2576101008083540402835291602001916103ed565b820191906000526020600020905b8154815290600101906020018083116103d057829003601f168201915b505050505081565b60606001805461040490610b74565b80601f016020809104026020016040519081016040528092919081815260200182805461043090610b74565b801561047d5780601f106104525761010080835404028352916020019161047d565b820191906000526020600020905b81548152906001019060200180831161046057829003601f168201915b5050505050905090565b6005816040516104979190610c4d565b908152602001604051809103902060009054906101000a900460ff16156104f3576040517f08c379a00000000000000000000000000000000000000000000000000000000081526004016104ea90610cd6565b60405180910390fd5b6004819080600181540180825580915050600190039060005260206000200160009091909190915090816105279190610ea2565b506000600160048054905061053c9190610fa3565b90506105483382610583565b600160058360405161055a9190610c4d565b908152602001604051809103902060006101000a81548160ff0219169083151502179055505050565b600073ffffffffffffffffffffffffffffffffffffffff168273ffffffffffffffffffffffffffffffffffffffff16036105f2576040517f08c379a00000000000000000000000000000000000000000000000000000000081526004016105e990611049565b60405180910390fd5b6105fb81610744565b1561063b576040517f08c379a0000000000000000000000000000000000000000000000000000000008152600401610632906110b5565b60405180910390fd5b816002600083815260200190815260200160002060006101000a81548173ffffffffffffffffffffffffffffffffffffffff021916908373ffffffffffffffffffffffffffffffffffffffff1602179055506001600360008473ffffffffffffffffffffffffffffffffffffffff1673ffffffffffffffffffffffffffffffffffffffff16815260200190815260200160002060008282546106dd91906110d5565b92505081905550808273ffffffffffffffffffffffffffffffffffffffff16600073ffffffffffffffffffffffffffffffffffffffff167fddf252ad1be2c89b69c2b068fc378daa952ba7f163c4a11628f55a4df523b3ef60405160405180910390a45050565b6000806002600084815260200190815260200160002060009054906101000a900473ffffffffffffffffffffffffffffffffffffffff169050600073ffffffffffffffffffffffffffffffffffffffff168173ffffffffffffffffffffffffffffffffffffffff161415915050919050565b600081519050919050565b600082825260208201905092915050565b60005b838110156107f05780820151818401526020810190506107d5565b838111156107ff576000848401525b50505050565b6000601f19601f8301169050919050565b6000610821826107b6565b61082b81856107c1565b935061083b8185602086016107d2565b61084481610805565b840191505092915050565b600060208201905081810360008301526108698184610816565b905092915050565b6000604051905090565b600080fd5b600080fd5b6000819050919050565b61089881610885565b81146108a357600080fd5b50565b6000813590506108b58161088f565b92915050565b6000602082840312156108d1576108d061087b565b5b60006108df848285016108a6565b91505092915050565b600073ffffffffffffffffffffffffffffffffffffffff82169050919050565b6000610913826108e8565b9050919050565b61092381610908565b82525050565b600060208201905061093e600083018461091a565b92915050565b61094d81610908565b811461095857600080fd5b50565b60008135905061096a81610944565b92915050565b6000602082840312156109865761098561087b565b5b60006109948482850161095b565b91505092915050565b6109a681610885565b82525050565b60006020820190506109c1600083018461099d565b92915050565b600080fd5b600080fd5b7f4e487b7100000000000000000000000000000000000000000000000000000000600052604160045260246000fd5b610a0982610805565b810181811067ffffffffffffffff82111715610a2857610a276109d1565b5b80604052505050565b6000610a3b610871565b9050610a478282610a00565b919050565b600067ffffffffffffffff821115610a6757610a666109d1565b5b610a7082610805565b9050602081019050919050565b82818337600083830152505050565b6000610a9f610a9a84610a4c565b610a31565b905082815260208101848484011115610abb57610aba6109cc565b5b610ac6848285610a7d565b509392505050565b600082601f830112610ae357610ae26109c7565b5b8135610af3848260208601610a8c565b91505092915050565b600060208284031215610b1257610b1161087b565b5b600082013567ffffffffffffffff811115610b3057610b2f610880565b5b610b3c84828501610ace565b91505092915050565b7f4e487b7100000000000000000000000000000000000000000000000000000000600052602260045260246000fd5b60006002820490506001821680610b8c57607f821691505b602082108103610b9f57610b9e610b45565b5b50919050565b7f4f776e6572206164647265737320646f6573206e6f742065786973742e000000600082015250565b6000610bdb601d836107c1565b9150610be682610ba5565b602082019050919050565b60006020820190508181036000830152610c0a81610bce565b9050919050565b600081905092915050565b6000610c27826107b6565b610c318185610c11565b9350610c418185602086016107d2565b80840191505092915050565b6000610c598284610c1c565b915081905092915050565b7f4572726f72202d206b727970746f4269726420616c726561647920657869737460008201527f7321000000000000000000000000000000000000000000000000000000000000602082015250565b6000610cc06022836107c1565b9150610ccb82610c64565b604082019050919050565b60006020820190508181036000830152610cef81610cb3565b9050919050565b60008190508160005260206000209050919050565b60006020601f8301049050919050565b600082821b905092915050565b600060088302610d587fffffffffffffffffffffffffffffffffffffffffffffffffffffffffffffffff82610d1b565b610d628683610d1b565b95508019841693508086168417925050509392505050565b6000819050919050565b6000610d9f610d9a610d9584610885565b610d7a565b610885565b9050919050565b6000819050919050565b610db983610d84565b610dcd610dc582610da6565b848454610d28565b825550505050565b600090565b610de2610dd5565b610ded818484610db0565b505050565b5b81811015610e1157610e06600082610dda565b600181019050610df3565b5050565b601f821115610e5657610e2781610cf6565b610e3084610d0b565b81016020851015610e3f578190505b610e53610e4b85610d0b565b830182610df2565b50505b505050565b600082821c905092915050565b6000610e7960001984600802610e5b565b1980831691505092915050565b6000610e928383610e68565b9150826002028217905092915050565b610eab826107b6565b67ffffffffffffffff811115610ec457610ec36109d1565b5b610ece8254610b74565b610ed9828285610e15565b600060209050601f831160018114610f0c5760008415610efa578287015190505b610f048582610e86565b865550610f6c565b601f198416610f1a86610cf6565b60005b82811015610f4257848901518255600182019150602085019450602081019050610f1d565b86831015610f5f5784890151610f5b601f891682610e68565b8355505b6001600288020188555050505b505050505050565b7f4e487b7100000000000000000000000000000000000000000000000000000000600052601160045260246000fd5b6000610fae82610885565b9150610fb983610885565b925082821015610fcc57610fcb610f74565b5b828203905092915050565b7f4552433732312063616e6e6f74206d696e7420746f2061207a65726f2061646460008201527f7265737321000000000000000000000000000000000000000000000000000000602082015250565b60006110336025836107c1565b915061103e82610fd7565b604082019050919050565b6000602082019050818103600083015261106281611026565b9050919050565b7f546f6b656e20616c7265616479206d696e746564210000000000000000000000600082015250565b600061109f6015836107c1565b91506110aa82611069565b602082019050919050565b600060208201905081810360008301526110ce81611092565b9050919050565b60006110e082610885565b91506110eb83610885565b9250827fffffffffffffffffffffffffffffffffffffffffffffffffffffffffffffffff038211156111205761111f610f74565b5b82820190509291505056fea2646970667358221220da7e2a9ece7c85c284efdca79e61120df861568847e22824aa8bbf1a3bca46bd64736f6c634300080f0033",
  "immutableReferences": {},
  "source": "// SPDX-License-Identifier: MIT\r\npragma solidity ^0.8.0;\r\n\r\nimport './ERC721Connector.sol';\r\n\r\ncontract KryptoBird is ERC721Connector {\r\n\r\n    string[] public kryptoBirdz; // array to store our NFTs\r\n\r\n    mapping(string => bool) _kryptoBirdzExists;\r\n\r\n    function mint(string memory _kryptoBird) public {\r\n\r\n        //require that the current kryptoBird being minted does not already exist\r\n        require(!_kryptoBirdzExists[_kryptoBird], 'Error - kryptoBird already exists!');\r\n\r\n        kryptoBirdz.push(_kryptoBird);\r\n        uint _id = kryptoBirdz.length - 1;\r\n\r\n        //running the mint function from ERC721.sol:\r\n        _mint(msg.sender, _id);\r\n        _kryptoBirdzExists[_kryptoBird] = true;\r\n    }\r\n\r\n    constructor() ERC721Connector('KryptoBird', 'KBIRDZ') {\r\n        \r\n\r\n    }\r\n}",
  "sourcePath": "C:\\Users\\dell\\Desktop\\stcet\\7th Sem\\Flipkart\\NFT\\nft-marketplace-starter-kit\\src\\contracts\\KryptoBirdz.sol",
  "compiler": {
    "name": "solc",
    "version": "0.8.15+commit.e14f2714.Emscripten.clang"
  },
  "schemaVersion": "3.4.8",
  "updatedAt": "2022-07-16T18:38:17.701Z",
  "networkType": "ethereum",
  "devdoc": {
    "kind": "dev",
    "methods": {
      "balanceOf(address)": {
        "details": "NFTs assigned to the zero address are considered invalid, and this  function throws for queries about the zero address.",
        "params": {
          "_owner": "An address for whom to query the balance"
        },
        "returns": {
          "_0": "The number of NFTs owned by `_owner`, possibly zero"
        }
      },
      "ownerOf(uint256)": {
        "details": "NFTs assigned to zero address are considered invalid, and queries  about them do throw.",
        "params": {
          "_tokenId": "The identifier for an NFT"
        },
        "returns": {
          "_0": "The address of the owner of the NFT"
        }
      }
    },
    "version": 1
  },
  "userdoc": {
    "kind": "user",
    "methods": {
      "balanceOf(address)": {
        "notice": "Count all NFTs assigned to an owner"
      },
      "ownerOf(uint256)": {
        "notice": "Find the owner of an NFT"
      }
    },
    "version": 1
  }
}