{
  "contractName": "KryptoBird",
  "abi": [
    {
      "inputs": [],
      "stateMutability": "nonpayable",
      "type": "constructor"
    },
    {
      "anonymous": false,
      "inputs": [
        {
          "indexed": true,
          "internalType": "address",
          "name": "from",
          "type": "address"
        },
        {
          "indexed": true,
          "internalType": "address",
          "name": "to",
          "type": "address"
        },
        {
          "indexed": true,
          "internalType": "uint256",
          "name": "tokenId",
          "type": "uint256"
        }
      ],
      "name": "Transfer",
      "type": "event"
    },
    {
      "inputs": [
        {
          "internalType": "address",
          "name": "_owner",
          "type": "address"
        }
      ],
      "name": "balanceOf",
      "outputs": [
        {
          "internalType": "uint256",
          "name": "",
          "type": "uint256"
        }
      ],
      "stateMutability": "view",
      "type": "function",
      "constant": true
    },
    {
      "inputs": [
        {
          "internalType": "uint256",
          "name": "",
          "type": "uint256"
        }
      ],
      "name": "kryptoBirdz",
      "outputs": [
        {
          "internalType": "string",
          "name": "",
          "type": "string"
        }
      ],
      "stateMutability": "view",
      "type": "function",
      "constant": true
    },
    {
      "inputs": [],
      "name": "name",
      "outputs": [
        {
          "internalType": "string",
          "name": "",
          "type": "string"
        }
      ],
      "stateMutability": "view",
      "type": "function",
      "constant": true
    },
    {
      "inputs": [
        {
          "internalType": "uint256",
          "name": "_tokenId",
          "type": "uint256"
        }
      ],
      "name": "ownerOf",
      "outputs": [
        {
          "internalType": "address",
          "name": "",
          "type": "address"
        }
      ],
      "stateMutability": "view",
      "type": "function",
      "constant": true
    },
    {
      "inputs": [],
      "name": "symbol",
      "outputs": [
        {
          "internalType": "string",
          "name": "",
          "type": "string"
        }
      ],
      "stateMutability": "view",
      "type": "function",
      "constant": true
    },
    {
      "inputs": [
        {
          "internalType": "uint256",
          "name": "index",
          "type": "uint256"
        }
      ],
      "name": "tokenByIndex",
      "outputs": [
        {
          "internalType": "uint256",
          "name": "",
          "type": "uint256"
        }
      ],
      "stateMutability": "view",
      "type": "function",
      "constant": true
    },
    {
      "inputs": [
        {
          "internalType": "address",
          "name": "owner",
          "type": "address"
        },
        {
          "internalType": "uint256",
          "name": "index",
          "type": "uint256"
        }
      ],
      "name": "tokenOfOwnerByIndex",
      "outputs": [
        {
          "internalType": "uint256",
          "name": "",
          "type": "uint256"
        }
      ],
      "stateMutability": "view",
      "type": "function",
      "constant": true
    },
    {
      "inputs": [],
      "name": "totalSupply",
      "outputs": [
        {
          "internalType": "uint256",
          "name": "",
          "type": "uint256"
        }
      ],
      "stateMutability": "view",
      "type": "function",
      "constant": true
    },
    {
      "inputs": [
        {
          "internalType": "string",
          "name": "_kryptoBird",
          "type": "string"
        }
      ],
      "name": "mint",
      "outputs": [],
      "stateMutability": "nonpayable",
      "type": "function"
    }
  ],
  "bytecode": "0x60806040523480156200001157600080fd5b506040518060400160405280600a81526020017f4b727970746f42697264000000000000000000000000000000000000000000008152506040518060400160405280600681526020017f4b424952445a00000000000000000000000000000000000000000000000000008152508181816000908162000091919062000328565b508060019081620000a3919062000328565b50505050506200040f565b600081519050919050565b7f4e487b7100000000000000000000000000000000000000000000000000000000600052604160045260246000fd5b7f4e487b7100000000000000000000000000000000000000000000000000000000600052602260045260246000fd5b600060028204905060018216806200013057607f821691505b602082108103620001465762000145620000e8565b5b50919050565b60008190508160005260206000209050919050565b60006020601f8301049050919050565b600082821b905092915050565b600060088302620001b07fffffffffffffffffffffffffffffffffffffffffffffffffffffffffffffffff8262000171565b620001bc868362000171565b95508019841693508086168417925050509392505050565b6000819050919050565b6000819050919050565b60006200020962000203620001fd84620001d4565b620001de565b620001d4565b9050919050565b6000819050919050565b6200022583620001e8565b6200023d620002348262000210565b8484546200017e565b825550505050565b600090565b6200025462000245565b620002618184846200021a565b505050565b5b8181101562000289576200027d6000826200024a565b60018101905062000267565b5050565b601f821115620002d857620002a2816200014c565b620002ad8462000161565b81016020851015620002bd578190505b620002d5620002cc8562000161565b83018262000266565b50505b505050565b600082821c905092915050565b6000620002fd60001984600802620002dd565b1980831691505092915050565b6000620003188383620002ea565b9150826002028217905092915050565b6200033382620000ae565b67ffffffffffffffff8111156200034f576200034e620000b9565b5b6200035b825462000117565b620003688282856200028d565b600060209050601f831160018114620003a057600084156200038b578287015190505b6200039785826200030a565b86555062000407565b601f198416620003b0866200014c565b60005b82811015620003da57848901518255600182019150602085019450602081019050620003b3565b86831015620003fa5784890151620003f6601f891682620002ea565b8355505b6001600288020188555050505b505050505050565b6115b3806200041f6000396000f3fe608060405234801561001057600080fd5b50600436106100935760003560e01c80636352211e116100665780636352211e1461013457806370a082311461016457806393ab6e561461019457806395d89b41146101c4578063d85d3d27146101e257610093565b806306fdde031461009857806318160ddd146100b65780632f745c59146100d45780634f6ccce714610104575b600080fd5b6100a06101fe565b6040516100ad9190610b5a565b60405180910390f35b6100be610290565b6040516100cb9190610b95565b60405180910390f35b6100ee60048036038101906100e99190610c4e565b61029d565b6040516100fb9190610b95565b60405180910390f35b61011e60048036038101906101199190610c8e565b61034d565b60405161012b9190610b95565b60405180910390f35b61014e60048036038101906101499190610c8e565b6103be565b60405161015b9190610cca565b60405180910390f35b61017e60048036038101906101799190610ce5565b61046f565b60405161018b9190610b95565b60405180910390f35b6101ae60048036038101906101a99190610c8e565b610526565b6040516101bb9190610b5a565b60405180910390f35b6101cc6105d2565b6040516101d99190610b5a565b60405180910390f35b6101fc60048036038101906101f79190610e47565b610664565b005b60606000805461020d90610ebf565b80601f016020809104026020016040519081016040528092919081815260200182805461023990610ebf565b80156102865780601f1061025b57610100808354040283529160200191610286565b820191906000526020600020905b81548152906001019060200180831161026957829003601f168201915b5050505050905090565b6000600480549050905090565b60006102a88361046f565b82106102e9576040517f08c379a00000000000000000000000000000000000000000000000000000000081526004016102e090610f3c565b60405180910390fd5b600660008473ffffffffffffffffffffffffffffffffffffffff1673ffffffffffffffffffffffffffffffffffffffff168152602001908152602001600020828154811061033a57610339610f5c565b5b9060005260206000200154905092915050565b6000610357610290565b8210610398576040517f08c379a000000000000000000000000000000000000000000000000000000000815260040161038f90610fd7565b60405180910390fd5b600482815481106103ac576103ab610f5c565b5b90600052602060002001549050919050565b6000806002600084815260200190815260200160002060009054906101000a900473ffffffffffffffffffffffffffffffffffffffff169050600073ffffffffffffffffffffffffffffffffffffffff168173ffffffffffffffffffffffffffffffffffffffff1603610466576040517f08c379a000000000000000000000000000000000000000000000000000000000815260040161045d90611043565b60405180910390fd5b80915050919050565b60008073ffffffffffffffffffffffffffffffffffffffff168273ffffffffffffffffffffffffffffffffffffffff16036104df576040517f08c379a00000000000000000000000000000000000000000000000000000000081526004016104d690611043565b60405180910390fd5b600360008373ffffffffffffffffffffffffffffffffffffffff1673ffffffffffffffffffffffffffffffffffffffff168152602001908152602001600020549050919050565b6008818154811061053657600080fd5b90600052602060002001600091509050805461055190610ebf565b80601f016020809104026020016040519081016040528092919081815260200182805461057d90610ebf565b80156105ca5780601f1061059f576101008083540402835291602001916105ca565b820191906000526020600020905b8154815290600101906020018083116105ad57829003601f168201915b505050505081565b6060600180546105e190610ebf565b80601f016020809104026020016040519081016040528092919081815260200182805461060d90610ebf565b801561065a5780601f1061062f5761010080835404028352916020019161065a565b820191906000526020600020905b81548152906001019060200180831161063d57829003601f168201915b5050505050905090565b600981604051610674919061109f565b908152602001604051809103902060009054906101000a900460ff16156106d0576040517f08c379a00000000000000000000000000000000000000000000000000000000081526004016106c790611128565b60405180910390fd5b60088190806001815401808255809150506001900390600052602060002001600090919091909150908161070491906112f4565b506000600160088054905061071991906113f5565b90506107253382610760565b6001600983604051610737919061109f565b908152602001604051809103902060006101000a81548160ff0219169083151502179055505050565b61076a8282610781565b61077381610942565b61077d828261098b565b5050565b600073ffffffffffffffffffffffffffffffffffffffff168273ffffffffffffffffffffffffffffffffffffffff16036107f0576040517f08c379a00000000000000000000000000000000000000000000000000000000081526004016107e79061149b565b60405180910390fd5b6107f981610a4f565b15610839576040517f08c379a000000000000000000000000000000000000000000000000000000000815260040161083090611507565b60405180910390fd5b816002600083815260200190815260200160002060006101000a81548173ffffffffffffffffffffffffffffffffffffffff021916908373ffffffffffffffffffffffffffffffffffffffff1602179055506001600360008473ffffffffffffffffffffffffffffffffffffffff1673ffffffffffffffffffffffffffffffffffffffff16815260200190815260200160002060008282546108db9190611527565b92505081905550808273ffffffffffffffffffffffffffffffffffffffff16600073ffffffffffffffffffffffffffffffffffffffff167fddf252ad1be2c89b69c2b068fc378daa952ba7f163c4a11628f55a4df523b3ef60405160405180910390a45050565b6004805490506005600083815260200190815260200160002081905550600481908060018154018082558091505060019003906000526020600020016000909190919091505550565b600660008373ffffffffffffffffffffffffffffffffffffffff1673ffffffffffffffffffffffffffffffffffffffff168152602001908152602001600020805490506007600083815260200190815260200160002081905550600660008373ffffffffffffffffffffffffffffffffffffffff1673ffffffffffffffffffffffffffffffffffffffff1681526020019081526020016000208190806001815401808255809150506001900390600052602060002001600090919091909150555050565b6000806002600084815260200190815260200160002060009054906101000a900473ffffffffffffffffffffffffffffffffffffffff169050600073ffffffffffffffffffffffffffffffffffffffff168173ffffffffffffffffffffffffffffffffffffffff161415915050919050565b600081519050919050565b600082825260208201905092915050565b60005b83811015610afb578082015181840152602081019050610ae0565b83811115610b0a576000848401525b50505050565b6000601f19601f8301169050919050565b6000610b2c82610ac1565b610b368185610acc565b9350610b46818560208601610add565b610b4f81610b10565b840191505092915050565b60006020820190508181036000830152610b748184610b21565b905092915050565b6000819050919050565b610b8f81610b7c565b82525050565b6000602082019050610baa6000830184610b86565b92915050565b6000604051905090565b600080fd5b600080fd5b600073ffffffffffffffffffffffffffffffffffffffff82169050919050565b6000610bef82610bc4565b9050919050565b610bff81610be4565b8114610c0a57600080fd5b50565b600081359050610c1c81610bf6565b92915050565b610c2b81610b7c565b8114610c3657600080fd5b50565b600081359050610c4881610c22565b92915050565b60008060408385031215610c6557610c64610bba565b5b6000610c7385828601610c0d565b9250506020610c8485828601610c39565b9150509250929050565b600060208284031215610ca457610ca3610bba565b5b6000610cb284828501610c39565b91505092915050565b610cc481610be4565b82525050565b6000602082019050610cdf6000830184610cbb565b92915050565b600060208284031215610cfb57610cfa610bba565b5b6000610d0984828501610c0d565b91505092915050565b600080fd5b600080fd5b7f4e487b7100000000000000000000000000000000000000000000000000000000600052604160045260246000fd5b610d5482610b10565b810181811067ffffffffffffffff82111715610d7357610d72610d1c565b5b80604052505050565b6000610d86610bb0565b9050610d928282610d4b565b919050565b600067ffffffffffffffff821115610db257610db1610d1c565b5b610dbb82610b10565b9050602081019050919050565b82818337600083830152505050565b6000610dea610de584610d97565b610d7c565b905082815260208101848484011115610e0657610e05610d17565b5b610e11848285610dc8565b509392505050565b600082601f830112610e2e57610e2d610d12565b5b8135610e3e848260208601610dd7565b91505092915050565b600060208284031215610e5d57610e5c610bba565b5b600082013567ffffffffffffffff811115610e7b57610e7a610bbf565b5b610e8784828501610e19565b91505092915050565b7f4e487b7100000000000000000000000000000000000000000000000000000000600052602260045260246000fd5b60006002820490506001821680610ed757607f821691505b602082108103610eea57610ee9610e90565b5b50919050565b7f4f776e657220496e646578206f7574206f6620626f756e647321000000000000600082015250565b6000610f26601a83610acc565b9150610f3182610ef0565b602082019050919050565b60006020820190508181036000830152610f5581610f19565b9050919050565b7f4e487b7100000000000000000000000000000000000000000000000000000000600052603260045260246000fd5b7f496e646578206f7574206f6620626f756e647321000000000000000000000000600082015250565b6000610fc1601483610acc565b9150610fcc82610f8b565b602082019050919050565b60006020820190508181036000830152610ff081610fb4565b9050919050565b7f4f776e6572206164647265737320646f6573206e6f742065786973742e000000600082015250565b600061102d601d83610acc565b915061103882610ff7565b602082019050919050565b6000602082019050818103600083015261105c81611020565b9050919050565b600081905092915050565b600061107982610ac1565b6110838185611063565b9350611093818560208601610add565b80840191505092915050565b60006110ab828461106e565b915081905092915050565b7f4572726f72202d206b727970746f4269726420616c726561647920657869737460008201527f7321000000000000000000000000000000000000000000000000000000000000602082015250565b6000611112602283610acc565b915061111d826110b6565b604082019050919050565b6000602082019050818103600083015261114181611105565b9050919050565b60008190508160005260206000209050919050565b60006020601f8301049050919050565b600082821b905092915050565b6000600883026111aa7fffffffffffffffffffffffffffffffffffffffffffffffffffffffffffffffff8261116d565b6111b4868361116d565b95508019841693508086168417925050509392505050565b6000819050919050565b60006111f16111ec6111e784610b7c565b6111cc565b610b7c565b9050919050565b6000819050919050565b61120b836111d6565b61121f611217826111f8565b84845461117a565b825550505050565b600090565b611234611227565b61123f818484611202565b505050565b5b818110156112635761125860008261122c565b600181019050611245565b5050565b601f8211156112a85761127981611148565b6112828461115d565b81016020851015611291578190505b6112a561129d8561115d565b830182611244565b50505b505050565b600082821c905092915050565b60006112cb600019846008026112ad565b1980831691505092915050565b60006112e483836112ba565b9150826002028217905092915050565b6112fd82610ac1565b67ffffffffffffffff81111561131657611315610d1c565b5b6113208254610ebf565b61132b828285611267565b600060209050601f83116001811461135e576000841561134c578287015190505b61135685826112d8565b8655506113be565b601f19841661136c86611148565b60005b828110156113945784890151825560018201915060208501945060208101905061136f565b868310156113b157848901516113ad601f8916826112ba565b8355505b6001600288020188555050505b505050505050565b7f4e487b7100000000000000000000000000000000000000000000000000000000600052601160045260246000fd5b600061140082610b7c565b915061140b83610b7c565b92508282101561141e5761141d6113c6565b5b828203905092915050565b7f4552433732312063616e6e6f74206d696e7420746f2061207a65726f2061646460008201527f7265737321000000000000000000000000000000000000000000000000000000602082015250565b6000611485602583610acc565b915061149082611429565b604082019050919050565b600060208201905081810360008301526114b481611478565b9050919050565b7f546f6b656e20616c7265616479206d696e746564210000000000000000000000600082015250565b60006114f1601583610acc565b91506114fc826114bb565b602082019050919050565b60006020820190508181036000830152611520816114e4565b9050919050565b600061153282610b7c565b915061153d83610b7c565b9250827fffffffffffffffffffffffffffffffffffffffffffffffffffffffffffffffff03821115611572576115716113c6565b5b82820190509291505056fea264697066735822122070caa9f131cacd2959ad0f8f7b5520ad5962c393728e9a105c055f65d87eae2564736f6c634300080f0033",
  "immutableReferences": {},
  "source": "// SPDX-License-Identifier: MIT\r\npragma solidity ^0.8.0;\r\n\r\nimport './ERC721Connector.sol';\r\n\r\ncontract KryptoBird is ERC721Connector { // this is inheritance \r\n\r\n    string[] public kryptoBirdz; // array to store our NFTs\r\n\r\n    mapping(string => bool) _kryptoBirdzExists;\r\n\r\n    function mint(string memory _kryptoBird) public {\r\n\r\n        //require that the current kryptoBird being minted does not already exist\r\n        require(!_kryptoBirdzExists[_kryptoBird], 'Error - kryptoBird already exists!');\r\n\r\n        kryptoBirdz.push(_kryptoBird);\r\n        uint _id = kryptoBirdz.length - 1;\r\n\r\n        //running the mint function from ERC721.sol:\r\n        _mint(msg.sender, _id); // msg.sender = first address on Ganache\r\n        _kryptoBirdzExists[_kryptoBird] = true;\r\n    }\r\n\r\n    constructor() ERC721Connector('KryptoBird', 'KBIRDZ') {\r\n        \r\n\r\n    }\r\n}",
  "sourcePath": "C:\\Users\\dell\\Desktop\\stcet\\7th Sem\\Flipkart\\NFT\\nft-marketplace-starter-kit\\src\\contracts\\KryptoBirdz.sol",
  "compiler": {
    "name": "solc",
    "version": "0.8.15+commit.e14f2714.Emscripten.clang"
  },
  "schemaVersion": "3.4.8",
  "updatedAt": "2022-07-16T21:05:10.078Z",
  "networkType": "ethereum",
  "devdoc": {
    "kind": "dev",
    "methods": {
      "balanceOf(address)": {
        "details": "NFTs assigned to the zero address are considered invalid, and this  function throws for queries about the zero address.",
        "params": {
          "_owner": "An address for whom to query the balance"
        },
        "returns": {
          "_0": "The number of NFTs owned by `_owner`, possibly zero"
        }
      },
      "ownerOf(uint256)": {
        "details": "NFTs assigned to zero address are considered invalid, and queries  about them do throw.",
        "params": {
          "_tokenId": "The identifier for an NFT"
        },
        "returns": {
          "_0": "The address of the owner of the NFT"
        }
      },
      "totalSupply()": {
        "returns": {
          "_0": "A count of valid NFTs tracked by this contract, where each one of  them has an assigned and queryable owner not equal to the zero address"
        }
      }
    },
    "version": 1
  },
  "userdoc": {
    "kind": "user",
    "methods": {
      "balanceOf(address)": {
        "notice": "Count all NFTs assigned to an owner"
      },
      "ownerOf(uint256)": {
        "notice": "Find the owner of an NFT"
      },
      "totalSupply()": {
        "notice": "Count NFTs tracked by this contract"
      }
    },
    "version": 1
  }
}