{
  "contractName": "Kryptobird",
  "abi": [
    {
      "inputs": [],
      "stateMutability": "nonpayable",
      "type": "constructor"
    },
    {
      "anonymous": false,
      "inputs": [
        {
          "indexed": true,
          "internalType": "address",
          "name": "from",
          "type": "address"
        },
        {
          "indexed": true,
          "internalType": "address",
          "name": "to",
          "type": "address"
        },
        {
          "indexed": true,
          "internalType": "uint256",
          "name": "tokenId",
          "type": "uint256"
        }
      ],
      "name": "Transfer",
      "type": "event"
    },
    {
      "inputs": [
        {
          "internalType": "uint256",
          "name": "",
          "type": "uint256"
        }
      ],
      "name": "kryptoBirdz",
      "outputs": [
        {
          "internalType": "string",
          "name": "",
          "type": "string"
        }
      ],
      "stateMutability": "view",
      "type": "function",
      "constant": true
    },
    {
      "inputs": [],
      "name": "name",
      "outputs": [
        {
          "internalType": "string",
          "name": "",
          "type": "string"
        }
      ],
      "stateMutability": "view",
      "type": "function",
      "constant": true
    },
    {
      "inputs": [],
      "name": "symbol",
      "outputs": [
        {
          "internalType": "string",
          "name": "",
          "type": "string"
        }
      ],
      "stateMutability": "view",
      "type": "function",
      "constant": true
    },
    {
      "inputs": [
        {
          "internalType": "string",
          "name": "_kryptoBird",
          "type": "string"
        }
      ],
      "name": "mint",
      "outputs": [],
      "stateMutability": "nonpayable",
      "type": "function"
    }
  ],
  "bytecode": "0x60806040523480156200001157600080fd5b506040518060400160405280600a81526020017f4b727970746f42697264000000000000000000000000000000000000000000008152506040518060400160405280600681526020017f4b424952445a00000000000000000000000000000000000000000000000000008152508181816000908162000091919062000328565b508060019081620000a3919062000328565b50505050506200040f565b600081519050919050565b7f4e487b7100000000000000000000000000000000000000000000000000000000600052604160045260246000fd5b7f4e487b7100000000000000000000000000000000000000000000000000000000600052602260045260246000fd5b600060028204905060018216806200013057607f821691505b602082108103620001465762000145620000e8565b5b50919050565b60008190508160005260206000209050919050565b60006020601f8301049050919050565b600082821b905092915050565b600060088302620001b07fffffffffffffffffffffffffffffffffffffffffffffffffffffffffffffffff8262000171565b620001bc868362000171565b95508019841693508086168417925050509392505050565b6000819050919050565b6000819050919050565b60006200020962000203620001fd84620001d4565b620001de565b620001d4565b9050919050565b6000819050919050565b6200022583620001e8565b6200023d620002348262000210565b8484546200017e565b825550505050565b600090565b6200025462000245565b620002618184846200021a565b505050565b5b8181101562000289576200027d6000826200024a565b60018101905062000267565b5050565b601f821115620002d857620002a2816200014c565b620002ad8462000161565b81016020851015620002bd578190505b620002d5620002cc8562000161565b83018262000266565b50505b505050565b600082821c905092915050565b6000620002fd60001984600802620002dd565b1980831691505092915050565b6000620003188383620002ea565b9150826002028217905092915050565b6200033382620000ae565b67ffffffffffffffff8111156200034f576200034e620000b9565b5b6200035b825462000117565b620003688282856200028d565b600060209050601f831160018114620003a057600084156200038b578287015190505b6200039785826200030a565b86555062000407565b601f198416620003b0866200014c565b60005b82811015620003da57848901518255600182019150602085019450602081019050620003b3565b86831015620003fa5784890151620003f6601f891682620002ea565b8355505b6001600288020188555050505b505050505050565b610e38806200041f6000396000f3fe608060405234801561001057600080fd5b506004361061004c5760003560e01c806306fdde031461005157806393ab6e561461006f57806395d89b411461009f578063d85d3d27146100bd575b600080fd5b6100596100d9565b6040516100669190610671565b60405180910390f35b610089600480360381019061008491906106dd565b61016b565b6040516100969190610671565b60405180910390f35b6100a7610217565b6040516100b49190610671565b60405180910390f35b6100d760048036038101906100d2919061083f565b6102a9565b005b6060600080546100e8906108b7565b80601f0160208091040260200160405190810160405280929190818152602001828054610114906108b7565b80156101615780601f1061013657610100808354040283529160200191610161565b820191906000526020600020905b81548152906001019060200180831161014457829003601f168201915b5050505050905090565b6004818154811061017b57600080fd5b906000526020600020016000915090508054610196906108b7565b80601f01602080910402602001604051908101604052809291908181526020018280546101c2906108b7565b801561020f5780601f106101e45761010080835404028352916020019161020f565b820191906000526020600020905b8154815290600101906020018083116101f257829003601f168201915b505050505081565b606060018054610226906108b7565b80601f0160208091040260200160405190810160405280929190818152602001828054610252906108b7565b801561029f5780601f106102745761010080835404028352916020019161029f565b820191906000526020600020905b81548152906001019060200180831161028257829003601f168201915b5050505050905090565b6005816040516102b99190610924565b908152602001604051809103902060009054906101000a900460ff1615610315576040517f08c379a000000000000000000000000000000000000000000000000000000000815260040161030c906109ad565b60405180910390fd5b6004819080600181540180825580915050600190039060005260206000200160009091909190915090816103499190610b79565b506000600160048054905061035e9190610c7a565b905061036a33826103a5565b600160058360405161037c9190610924565b908152602001604051809103902060006101000a81548160ff0219169083151502179055505050565b600073ffffffffffffffffffffffffffffffffffffffff168273ffffffffffffffffffffffffffffffffffffffff1603610414576040517f08c379a000000000000000000000000000000000000000000000000000000000815260040161040b90610d20565b60405180910390fd5b61041d81610566565b1561045d576040517f08c379a000000000000000000000000000000000000000000000000000000000815260040161045490610d8c565b60405180910390fd5b816002600083815260200190815260200160002060006101000a81548173ffffffffffffffffffffffffffffffffffffffff021916908373ffffffffffffffffffffffffffffffffffffffff1602179055506001600360008473ffffffffffffffffffffffffffffffffffffffff1673ffffffffffffffffffffffffffffffffffffffff16815260200190815260200160002060008282546104ff9190610dac565b92505081905550808273ffffffffffffffffffffffffffffffffffffffff16600073ffffffffffffffffffffffffffffffffffffffff167fddf252ad1be2c89b69c2b068fc378daa952ba7f163c4a11628f55a4df523b3ef60405160405180910390a45050565b6000806002600084815260200190815260200160002060009054906101000a900473ffffffffffffffffffffffffffffffffffffffff169050600073ffffffffffffffffffffffffffffffffffffffff168173ffffffffffffffffffffffffffffffffffffffff161415915050919050565b600081519050919050565b600082825260208201905092915050565b60005b838110156106125780820151818401526020810190506105f7565b83811115610621576000848401525b50505050565b6000601f19601f8301169050919050565b6000610643826105d8565b61064d81856105e3565b935061065d8185602086016105f4565b61066681610627565b840191505092915050565b6000602082019050818103600083015261068b8184610638565b905092915050565b6000604051905090565b600080fd5b600080fd5b6000819050919050565b6106ba816106a7565b81146106c557600080fd5b50565b6000813590506106d7816106b1565b92915050565b6000602082840312156106f3576106f261069d565b5b6000610701848285016106c8565b91505092915050565b600080fd5b600080fd5b7f4e487b7100000000000000000000000000000000000000000000000000000000600052604160045260246000fd5b61074c82610627565b810181811067ffffffffffffffff8211171561076b5761076a610714565b5b80604052505050565b600061077e610693565b905061078a8282610743565b919050565b600067ffffffffffffffff8211156107aa576107a9610714565b5b6107b382610627565b9050602081019050919050565b82818337600083830152505050565b60006107e26107dd8461078f565b610774565b9050828152602081018484840111156107fe576107fd61070f565b5b6108098482856107c0565b509392505050565b600082601f8301126108265761082561070a565b5b81356108368482602086016107cf565b91505092915050565b6000602082840312156108555761085461069d565b5b600082013567ffffffffffffffff811115610873576108726106a2565b5b61087f84828501610811565b91505092915050565b7f4e487b7100000000000000000000000000000000000000000000000000000000600052602260045260246000fd5b600060028204905060018216806108cf57607f821691505b6020821081036108e2576108e1610888565b5b50919050565b600081905092915050565b60006108fe826105d8565b61090881856108e8565b93506109188185602086016105f4565b80840191505092915050565b600061093082846108f3565b915081905092915050565b7f4572726f72202d206b727970746f4269726420616c726561647920657869737460008201527f7321000000000000000000000000000000000000000000000000000000000000602082015250565b60006109976022836105e3565b91506109a28261093b565b604082019050919050565b600060208201905081810360008301526109c68161098a565b9050919050565b60008190508160005260206000209050919050565b60006020601f8301049050919050565b600082821b905092915050565b600060088302610a2f7fffffffffffffffffffffffffffffffffffffffffffffffffffffffffffffffff826109f2565b610a3986836109f2565b95508019841693508086168417925050509392505050565b6000819050919050565b6000610a76610a71610a6c846106a7565b610a51565b6106a7565b9050919050565b6000819050919050565b610a9083610a5b565b610aa4610a9c82610a7d565b8484546109ff565b825550505050565b600090565b610ab9610aac565b610ac4818484610a87565b505050565b5b81811015610ae857610add600082610ab1565b600181019050610aca565b5050565b601f821115610b2d57610afe816109cd565b610b07846109e2565b81016020851015610b16578190505b610b2a610b22856109e2565b830182610ac9565b50505b505050565b600082821c905092915050565b6000610b5060001984600802610b32565b1980831691505092915050565b6000610b698383610b3f565b9150826002028217905092915050565b610b82826105d8565b67ffffffffffffffff811115610b9b57610b9a610714565b5b610ba582546108b7565b610bb0828285610aec565b600060209050601f831160018114610be35760008415610bd1578287015190505b610bdb8582610b5d565b865550610c43565b601f198416610bf1866109cd565b60005b82811015610c1957848901518255600182019150602085019450602081019050610bf4565b86831015610c365784890151610c32601f891682610b3f565b8355505b6001600288020188555050505b505050505050565b7f4e487b7100000000000000000000000000000000000000000000000000000000600052601160045260246000fd5b6000610c85826106a7565b9150610c90836106a7565b925082821015610ca357610ca2610c4b565b5b828203905092915050565b7f4552433732312063616e6e6f74206d696e7420746f2061207a65726f2061646460008201527f7265737321000000000000000000000000000000000000000000000000000000602082015250565b6000610d0a6025836105e3565b9150610d1582610cae565b604082019050919050565b60006020820190508181036000830152610d3981610cfd565b9050919050565b7f546f6b656e20616c7265616479206d696e746564210000000000000000000000600082015250565b6000610d766015836105e3565b9150610d8182610d40565b602082019050919050565b60006020820190508181036000830152610da581610d69565b9050919050565b6000610db7826106a7565b9150610dc2836106a7565b9250827fffffffffffffffffffffffffffffffffffffffffffffffffffffffffffffffff03821115610df757610df6610c4b565b5b82820190509291505056fea2646970667358221220cf26cfd5c5192fa1da126f27071a5bd330fb375fa27b91c0caac27761363024064736f6c634300080f0033",
  "immutableReferences": {},
  "source": "// SPDX-License-Identifier: MIT\r\npragma solidity ^0.8.0;\r\n\r\nimport './ERC721Connector.sol';\r\n\r\ncontract Kryptobird is ERC721Connector {\r\n\r\n    string[] public kryptoBirdz; // array to store our NFTs\r\n\r\n    mapping(string => bool) _kryptoBirdzExists;\r\n\r\n    function mint(string memory _kryptoBird) public {\r\n\r\n        //require that the current kryptoBird being minted does not already exist\r\n        require(!_kryptoBirdzExists[_kryptoBird], 'Error - kryptoBird already exists!');\r\n\r\n        kryptoBirdz.push(_kryptoBird);\r\n        uint _id = kryptoBirdz.length - 1;\r\n\r\n        //running the mint function from ERC721.sol:\r\n        _mint(msg.sender, _id);\r\n        _kryptoBirdzExists[_kryptoBird] = true;\r\n    }\r\n\r\n    constructor() ERC721Connector('KryptoBird', 'KBIRDZ') {\r\n        \r\n\r\n    }\r\n}",
  "sourcePath": "C:\\Users\\dell\\Desktop\\stcet\\7th Sem\\Flipkart\\NFT\\nft-marketplace-starter-kit\\src\\contracts\\KryptoBirdz.sol",
  "compiler": {
    "name": "solc",
    "version": "0.8.15+commit.e14f2714.Emscripten.clang"
  },
  "schemaVersion": "3.4.8",
  "updatedAt": "2022-07-14T21:24:03.151Z",
  "networkType": "ethereum",
  "devdoc": {
    "kind": "dev",
    "methods": {},
    "version": 1
  },
  "userdoc": {
    "kind": "user",
    "methods": {},
    "version": 1
  }
}